{
  "_format": "hh-sol-artifact-1",
  "contractName": "Whitelist",
  "sourceName": "contracts/Whitlist.sol",
  "abi": [
    {
      "inputs": [
        {
          "internalType": "bytes32",
          "name": "_root",
          "type": "bytes32"
        }
      ],
      "stateMutability": "nonpayable",
      "type": "constructor"
    },
    {
      "inputs": [
        {
          "internalType": "bytes32[]",
          "name": "proof",
          "type": "bytes32[]"
        }
      ],
      "name": "isValid",
      "outputs": [
        {
          "internalType": "bool",
          "name": "",
          "type": "bool"
        }
      ],
      "stateMutability": "view",
      "type": "function"
    },
    {
      "inputs": [],
      "name": "root",
      "outputs": [
        {
          "internalType": "bytes32",
          "name": "",
          "type": "bytes32"
        }
      ],
      "stateMutability": "view",
      "type": "function"
    }
  ],
  "bytecode": "0x608060405234801561001057600080fd5b5060405161031938038061031983398101604081905261002f91610037565b60005561004f565b600060208284031215610048578081fd5b5051919050565b6102bb8061005e6000396000f3fe608060405234801561001057600080fd5b50600436106100365760003560e01c8063ebf0c7171461003b578063f56f516f14610059575b600080fd5b610043610079565b604051610050919061023f565b60405180910390f35b61006c61006736600461015d565b61007f565b6040516100509190610234565b60005481565b600080336040516020016100939190610217565b6040516020818303038152906040528051906020012090506100b883600054836100bf565b9392505050565b6000826100cc85846100d5565b14949350505050565b600081815b8451811015610128576101148286838151811061010757634e487b7160e01b600052603260045260246000fd5b6020026020010151610130565b91508061012081610248565b9150506100da565b509392505050565b600081831061014857610143828461014e565b6100b8565b6100b883835b60009182526020526040902090565b6000602080838503121561016f578182fd5b823567ffffffffffffffff80821115610186578384fd5b818501915085601f830112610199578384fd5b8135818111156101ab576101ab61026f565b838102604051858282010181811085821117156101ca576101ca61026f565b604052828152858101935084860182860187018a10156101e8578788fd5b8795505b8386101561020a5780358552600195909501949386019386016101ec565b5098975050505050505050565b60609190911b6bffffffffffffffffffffffff1916815260140190565b901515815260200190565b90815260200190565b600060001982141561026857634e487b7160e01b81526011600452602481fd5b5060010190565b634e487b7160e01b600052604160045260246000fdfea26469706673582212203ce707e5846c01e64decab91c4227b043f64bfb62325d7366cf8ee879298a69464736f6c63430008000033",
  "linkReferences": {},
  "deployedLinkReferences": {}
}